:100000000C942A000C9447000C9447000C94470071
:100010000C9447000C9447000C9447000C94470044
:100020000C9447000C9447000C9447000C94A503D3
:100030000C9447000C9447000C9447000C94470024
:100040000C9447000C9447000C9447000C94470014
:100050000C94470011241FBECFE5D4E0DEBFCDBF16
:1000600010E0A0E6B0E0E0E5F8E002C005900D92F7
:10007000AA3EB107D9F720E0AAEEB0E001C01D9278
:10008000AE3EB207E1F70E944A030C9426040C949A
:100090000000482F8FB58F7B8FBD8FB58F778FBDB9
:1000A0008FB58F7E8FBD8FB58F7D8FBD8FB58E7FC6
:1000B0008FBD8FB58D7F8FBD8EB588608EBD8EB59F
:1000C0008F7E8EBD242F30E0A9E0BDE30E9417048F
:1000D000BB27A92F982F872F8BBD89E0489F402DE4
:1000E00011244ABD8EB581608EBD8EB58D7F8EBDCB
:1000F0008EB584608EBD08B604FEFDCF88B78061E2
:1001000088BF0895613031F138F0623009F440C0A1
:10011000633009F45BC00895413061F44AB321E0D3
:1001200030E0B90102C0660F771F8A95E2F7CB0174
:10013000842B0EC0411167C04AB321E030E0B90101
:1001400002C0660F771F8A95E2F7CB018095842362
:100150008ABB0895413061F447B321E030E0B90132
:1001600002C0660F771F8A95E2F7CB01842B0EC081
:10017000411149C047B321E030E0B90102C0660F28
:10018000771F8A95E2F7CB018095842387BB08957A
:10019000413061F444B321E030E0B90102C0660FA0
:1001A000771F8A95E2F7CB01842B0EC041112BC03B
:1001B00044B321E030E0B90102C0660F771F8A9591
:1001C000E2F7CB018095842384BB0895413061F42C
:1001D00041B321E030E0B90102C0660F771F8A9574
:1001E000E2F7CB01842B0EC041110DC041B321E0D9
:1001F00030E0B90102C0660F771F8A95E2F7CB01A4
:100200008095842381BB0895613031F138F06230EC
:1002100009F440C0633009F45BC00895413061F4D3
:100220004BB321E030E0B90102C0660F771F8A9519
:10023000E2F7CB01842B0EC0411167C04BB321E024
:1002400030E0B90102C0660F771F8A95E2F7CB0153
:10025000809584238BBB0895413061F448B321E03D
:1002600030E0B90102C0660F771F8A95E2F7CB0133
:10027000842B0EC0411149C048B321E030E0B901E0
:1002800002C0660F771F8A95E2F7CB018095842321
:1002900088BB0895413061F445B321E030E0B901F5
:1002A00002C0660F771F8A95E2F7CB01842B0EC040
:1002B00041112BC045B321E030E0B90102C0660F07
:1002C000771F8A95E2F7CB018095842385BB08953B
:1002D000413061F442B321E030E0B90102C0660F61
:1002E000771F8A95E2F7CB01842B0EC041110DC018
:1002F00042B321E030E0B90102C0660F771F8A9552
:10030000E2F7CB018095842382BB0895813069F0A8
:1003100028F0823089F08330B1F00895613019F40B
:100320008FEF8BBB08951BBA0895613019F48FEFDE
:1003300088BB089518BA0895613019F48FEF85BB12
:10034000089515BA0895613019F48FEF82BB0895AE
:1003500012BA0895482F613059F030F0623051F0F0
:10036000633091F420B307C099B3892F90E005C0A2
:1003700026B301C023B330E0C90102C0959587952B
:100380004A95E2F78170089580E0089541E061E0C8
:1003900084E00E94820041E061E085E00E948200EA
:1003A00041E061E086E00E94820041E061E087E098
:1003B0000E94820040E061E080E00E94820040E014
:1003C00061E081E00E94820040E061E082E00E9402
:1003D000820040E061E083E00E94820061E081E011
:1003E0000C94860120E030E02817390749F0EFE946
:1003F000FFE03197F1F700C000002F5F3F4FF4CFCF
:100400000895AF92BF92CF92DF92EF92FF920F9337
:100410001F93CF93DF931F92CDB7DEB719828AE087
:1004200090E00E94F20100E010E0C80180599F4F67
:100430007C01FC01808140E061E00E940401A12C6C
:10044000B12CC5018C589F4F6C01FC01808161E08B
:100450000E94AA01811119C0F801EE0FFF1FEE0FD3
:10046000FF1FE05AFF4FEA0DFB1D80818983F601D3
:10047000808161E00E94AA018823C9F3F70180818D
:1004800041E061E00E94040113C0FFEFAF1ABF0A10
:1004900084E0A816B104A9F6F701808141E061E08B
:1004A0000E9404010F5F1F4F0430110509F0BDCFFA
:1004B00089810F90DF91CF911F910F91FF90EF9065
:1004C000DF90CF90BF90AF90089520E030E02817E4
:1004D000390739F045E04A95F1F700002F5F3F4FAB
:1004E000F6CF0895CF93C82F8BB38F709C2F907F3A
:1004F000892B8BBB41E060E080E00E94040140E07A
:1005000060E081E00E94040141E060E082E00E943E
:10051000040181E090E00E94650240E060E082E03A
:100520000E94040184E190E00E9465028BB3282FB1
:100530002F7030E1C39FC0011124822B8BBB41E09F
:1005400060E082E00E94040181E090E00E94650288
:1005500040E060E082E00E94040188EC90E0CF91EE
:100560000C946502CF93DF93EC018991882319F0F5
:100570000E947202FACFDF91CF910895CF93C82FD6
:100580008BB38F709C2F907F892B8BBB40E060E0FA
:1005900080E00E94040140E060E081E00E940401EC
:1005A00041E060E082E00E94040181E090E00E946E
:1005B000650240E060E082E00E94040184E190E096
:1005C0000E9465028BB3282F2F7030E1C39FC001BA
:1005D0001124822B8BBB41E060E082E00E94040189
:1005E00081E090E00E94650240E060E082E00E94CD
:1005F000040188EC90E0CF910C946502613011F415
:10060000815803C0623019F481540C94BE020895DD
:1006100020E030E02817390749F0EFE9FFE0319793
:10062000F1F700C000002F5F3F4FF4CF089581E045
:100630000E94BE0285E090E00C9408038AB38760B4
:100640008ABB8AB3806F8ABB84E190E00E94080372
:1006500040E060E082E00E94040183E30E94BE0269
:1006600082E30E94BE0288E20E94BE028CE00E94E9
:10067000BE020E94170386E00E94BE0288EC90E052
:100680000C9465020E9410048093EA0081E080933C
:10069000EB000895CF93DF931F92CDB7DEB70E9492
:1006A0001E0388E790E00E94B20282E00E944900A7
:1006B0000E9417030E94C60185E890E00E94B202E2
:1006C00062E081E00E94FE028FE890E00E94B202A8
:1006D00083E00E94490082E493E00E9412040E9499
:1006E000D2038AE990E00E9404040E94170385EB7C
:1006F00090E00E94B20262E081E00E94FE0283EC80
:1007000090E00E94B2020E9401028983882371F066
:1007100085ED90E00E94040489810E94FF0361E05E
:1007200080E10E94FE0289810E9472028091EB00AA
:10073000813049F762E080E10E94FE028091EA0088
:100740000E9472021092EB00DECF1F920F920FB642
:100750000F9211242F933F934F935F936F937F9347
:100760008F939F93AF93BF93EF93FF938091EC0090
:100770009091ED00892B29F0E091EC00F091ED00D3
:100780000995FF91EF91BF91AF919F918F917F91CB
:100790006F915F914F913F912F910F900FBE0F90EE
:1007A0001F901895F89480E48BB980B580B58F7B45
:1007B00080BD80B580B58E7F80BD80B580B58F7ED1
:1007C00080BD80B58F7D80BD80B580B5886080BDDF
:1007D00080B580B5826080BD80B5846080BD529850
:1007E00080B58F7780BD80B5807F80BD87E689B971
:1007F00080B5549A80B5539A579A789408955D9B22
:10080000FECF5E9A8CB90895CF93DF93EC01899166
:10081000882319F00E94FF03FACFDF91CF9108954A
:100820008CB108959093ED008093EC000895A29F01
:10083000B001B39FC001A39F700D811D1124911DB4
:10084000B29F700D811D1124911D0895F894FFCF62
:100850003132334134353642373839432A30234434
:100860000706050403020100554152542050726FDF
:100870006A65637400507265737320616E79004B12
:1008800065792E2E20203A29200057656C636F6D04
:100890006520746F20554152542050726F6A656311
:1008A00074210D0A00596F752053656E74203A202B
:1008B000202000596F752052656365697665642054
:1008C0003A202020000D0A49206A75737420736550
:0A08D0006E7420796F753A20000065
:00000001FF
