:100000000C942A000C9447000C9447000C94470071
:100010000C9447000C9447000C9447000C94470044
:100020000C9447000C9447000C9447000C945D001E
:100030000C9447000C9447000C9447000C94470024
:100040000C9447000C9447000C9447000C94470014
:100050000C94470011241FBECFE5D4E0DEBFCDBF16
:1000600010E0A0E6B0E0EEE9F1E002C005900D92EC
:10007000AE36B107D9F720E0AEE6B0E001C01D9280
:10008000A037B207E1F70E9452000C94CD000C9407
:1000900000000E94C60088E40E94B30089E40E9428
:1000A000B300089589E490E00E94C8000E948A008D
:1000B00080E690E00E94B700FFCF1F920F920FB62C
:1000C0000F9211242F933F934F935F936F937F93DE
:1000D0008F939F93AF93BF93EF93FF9380916E00A5
:1000E00090916F00892B29F0E0916E00F0916F00E4
:1000F0000995FF91EF91BF91AF919F918F917F9162
:100100006F915F914F913F912F910F900FBE0F9084
:100110001F901895F89480E48BB980B5806880BDF5
:1001200080B58F7B80BD80B58E7F80BD80B58F7E92
:1001300080BD80B58F7D80BD80B5877F80BD80B557
:10014000826080BD80B5846080BD529880B58F7715
:1001500080BD80B5807F80BD87E689B9549A539A67
:10016000579A789408955D9BFECF8CB90895CF93EC
:10017000DF93EC018881882331F021960E94B3003F
:1001800089918111FBCFDF91CF9108958CB10895B2
:0E01900090936F0080936E000895F894FFCF57
:0E019E0048692C205468657265210D0A000026
:00000001FF
